:100000003EC0EFC157C056C055C054C053C052C0C7
:1000100051C050C04FC04EC04DC04CC04BC04AC074
:1000200049C048C047C00902120001010080FA0916
:10003000040000000000000012011001FF00000891
:10004000C016DC0500010102000116034400470050
:1000500038005300410051002D004400440053007B
:100060001A037700770077002E006F0062006400AB
:10007000650076002E006100740004030904112459
:100080001FBECFE5D4E0DEBFCDBF10E0A0E6B0E0FC
:10009000E0ECF6E002C005900D92A236B107D9F768
:1000A00010E0A2E6B0E001C01D92A139B107E1F76E
:1000B000F0D204C3A5CF30E014C048E051E0FC0109
:1000C000E30FF11D2081252321F028B3257F226035
:1000D00002C028B3257F28BBC39A550F415091F722
:1000E0003F5F3613EACF80916200882311F0C49AF3
:1000F000C49881E00895FC0183E690E09093760037
:10010000809375008181811108C082818093630092
:1001100083818093640082E00895813031F483818B
:1001200087BB8481837F81BB17C0823029F486B36B
:100130008093640080B306C0833041F488B3809319
:10014000640082B38093650083E00895843031F4C5
:10015000838188BB848182BB80E00895853029F447
:100160008281809362008FEF0895863019F4C49ADB
:10017000C498F2CF8FEF8093630081E00895CF930E
:10018000DF936091770016160CF0ABC0635080913E
:100190007400CCE0D0E0C81BD109C558DF4F809176
:1001A00073008D3209F082C08AE580936000683068
:1001B00011F090E88FC08881807609F066C01092B7
:1001C0007000898181110BC01092710080E790E06E
:1001D000909376008093750090E882E060C085304F
:1001E00021F48A8180937800CEC08630B9F58B8166
:1001F000813019F488E390E004C0823049F486E24B
:1002000090E0909376008093750090EC82E147C077
:10021000833009F0B6C08A81811109C08AE790E075
:10022000909376008093750090EC84E038C0813024
:1002300049F480E690E0909376008093750090EC0E
:100240008AE12DC0823009F09CC08AE490E090934E
:1002500076008093750090EC86E121C0883019F417
:100260008AE790E00BC0893021F48A8180937A007C
:100270008AC08A3009F087C080E790E090937600CA
:100280008093750090E881E00AC0CE0134DF8F3F93
:1002900029F4988197FD8E8190E01DC090E82F8110
:1002A000211119C02E81281798F015C08091660081
:1002B00087FD7FCFCE01FFDE8F3F29F48EE1809353
:1002C000600090E003C090E0811104C08FEF03C094
:1002D000822F01C080E090936600809361001092AD
:1002E00077008091600084FF45C0809161008F3F5E
:1002F00009F440C0C82F893008F0C8E08C1B8093F7
:1003000061002091660020FF02C0D3EC01C0DBE455
:100310002F5F20936600809175009091760026FDF6
:1003200009C0DC012C2FE8E6F0E00DC034913D93CC
:10033000319604C0FC012C2FA8E6B0E02150B0F7A4
:1003400004C03D9131932150E0F78C0F911D9093A3
:100350007600809375006C2F88E690E03ED08C2F5D
:100360008C5FC83019F09FEF90936100D0936700C5
:10037000809360008AE090B39C7061F48150D9F75B
:1003800005C090EC01C090E880E089CF1092780021
:1003900010927200DF91CF91089585B7836085BF79
:1003A0008BB780648BBF0895A82FB92F8FEF9FEF75
:1003B00041E050EA615070F02D9138E0722F7827BB
:1003C00096958795269570FF02C0842795273A95C4
:1003D000A9F7F0CF809590950895E6DF8D939D93D2
:1003E0000895CF93CFB7CF93839BFECF839B09C054
:1003F000839B07C0839B05C0839B03C0839B01C075
:100400009EC0DF93C0917400DD27C558DF4F839BEA
:1004100002C0DF91EBCF2F930F931F9300B32FEF09
:1004200003FB20F94F933F9310B34FEF012703FBDA
:1004300021F93BE031C04E7F012F10B3216028C06D
:10044000102F4D7F2260000000B329C04B7F246035
:10045000012F000010B32BC010B3477F28602AC0C3
:100460004F7E00B320612CC04F7D10B320622FC09F
:100470004F7B00B3206432C0422700B349934FEF53
:100480000000102713FB20F910B31C70A9F1297F7D
:1004900091F2012703FB21F900B3237F89F2315048
:1004A000F0F1102713FB22F910B3277E79F2012710
:1004B00003FB23F92F7C81F200B3102713FB24F9EF
:1004C0002F7971F200C010B3012703FB25F92F73B8
:1004D00059F200C000B3102713FB26F9223040F276
:1004E00000C010B3012703FB27F9243028F64F770B
:1004F000206810B30000F9CF3B503195333010E441
:100500001ABFB8F0C31BD0400881033C41F10B3443
:1005100031F11981412F1F7720917200121731F4A8
:10052000093691F10D3279F0013E69F022272093CE
:1005300079003F914F911F910F912F91DF91CF91B2
:10054000CFBFCF911895009379003F914F911F91A4
:100550000F912F91DF91CAB7C6FD46CFF0CF009122
:100560007900002331F310917700112349F53430DD
:100570004AF13093770000937300109174003BE0D0
:10058000311B309374001EC0009177000130C4F419
:100590000AE53091600034FD17C000936000C7E6A3
:1005A000D0E016C0052710E002BB1FC0052722C0FF
:1005B000052727C005272CC0052710E002BB33C044
:1005C0004AE503C042ED01C0432FC4E1D0E032E070
:1005D00011B31C60939A02B311BB5F935CE020E8F7
:1005E00020FF052702BB279517951C3FD8F620FF53
:1005F0000527279502BB17951C3FC0F620FF05274E
:100600002795179502BB1C3F98F620FF05272795D5
:1006100017951C3F02BB70F600C0499120FF0527CB
:1006200002BB279517951C3F38F620FF0527279515
:1006300002BB17951C3F38F520FF05272795179516
:1006400002BB1C3F10F520FF0527279517951C3F7F
:1006500002BBE8F4242F3A9519F6037F5F9102BBA1
:1006600000C010917800C651D04011F01093720074
:1006700010E41ABF086011B3137F402F437F02BB01
:1006800011BB42BB56CF0527D3CF0527D8CF0527AF
:10069000DDCF2EE088E190E00FB6F894A89581BDFB
:1006A0000FBE21BD80EE88BB8FE187BB12BA83EFFE
:1006B00081BB73DE7894A89562DDFDCFF894FFCFFF
:0206C0005AFFDF
:00000001FF
