:1018000050C084C069C068C067C066C065C064C09D
:1018100063C062C061C060C05FC05EC05DC05CC0CC
:101820005BC05AC059C00403090412036F00620070
:101830006400650076002E0061007400100348000B
:101840004900440042006F006F0074001201100153
:1018500000000008C016DF050001010200010902B6
:101860002200010100803209040000010300000091
:10187000092101010001222100070581030800C898
:101880000600FF0901A101150026FF00750885016A
:1018900095060900B20201850295830900B2020192
:1018A000C00011241FBECFE5D4E0DEBFCDBF10E0E5
:1018B000A0E6B0E0EEEFFEE102C005900D92AA3680
:1018C000B107D9F710E0AAE6B0E001C01D92AB392C
:1018D000B107E1F74CD112C393CFA82FB92F80E005
:1018E00090E041E050EA60956F5F58F42D9138EF39
:1018F00082279795879510F0842795273F5FC8F337
:10190000F3CF0895EADF8D939D930895CF93CFB7DA
:10191000CF93C395849BE9F7849B09C0849B07C040
:10192000849B05C0849B03C0849B01C0A3C0DF933C
:10193000C0917E00DD27CB57DF4F849B02C0DF9133
:10194000EBCF2F930F931F9300B32FEF04FB20F9DE
:101950004F933F9310B34FEF012704FB21F93BE076
:1019600031C04E7F012F10B3216028C0102F4D7F52
:101970002260000000B329C04B7F2460012F0000CB
:1019800010B32BC010B3477F28602AC04F7E00B32E
:1019900020612CC04F7D10B320622FC04F7B00B35D
:1019A000206432C0422700B349934FEF0000102754
:1019B00014FB20F910B31471C9F1297F91F20127AA
:1019C00004FB21F900B3237F89F2315058F110272D
:1019D00014FB22F910B3277E79F2012704FB23F9C7
:1019E0002F7C81F200B3102714FB24F92F7971F2B8
:1019F00000C010B3012704FB25F92F7359F200C072
:101A000000B3102714FB26F9223040F200C010B3B7
:101A1000012704FB27F9243028F64F77206810B3FC
:101A20000000F9CF10E41ABF002719C03B503195D0
:101A3000C31BD04010E41ABF0881033CF9F00B34FB
:101A4000E9F020917C001981110F1213EDCF4A812A
:101A5000441F093641F10D3211F0013E29F7009380
:101A600083003F914F911F910F912F91DF91CAB742
:101A7000C6FD4FCFCF91CFBFCF9118952091830056
:101A8000222379F310918100112321F5343022F1C2
:101A90003093810020937D0010917E003BE0311B4C
:101AA00030937E0019C00091810001309CF40AE55A
:101AB0004F7081F43091600034FD10C000936000DD
:101AC000C1E7D0E00FC02795A8F45150A9F4220F28
:101AD0000000F9CF4AE503C042ED01C0432FC4E145
:101AE000D0E032E011B31461949A11BB02B320E448
:101AF00014E15F93012756E002BB279520F4515073
:101B000021F4220FF9CF012756E000003B5A02BB17
:101B1000D0F2279528F4515029F4220F0000F9CF74
:101B2000012756E0279502BB20F4515021F4220FE3
:101B3000F9CF012756E02991332302BB21F60B7E12
:101B400010918200110FC651D04002BB11F01093CA
:101B50007C0010E41ABF006111B31B7E402F4B7E46
:101B60005F9100C000C002BB11BB42BB7ACFBF92E5
:101B7000CF92DF92EF92FF920F931F9388E082BB88
:101B800088E28A95F1F783999BC181E08BBF82E05F
:101B90008BBF85B7836085BF8BB780648BBF8C9A02
:101BA00020E0A89588EB9BE00197F1F72150C9F759
:101BB0008C987894BB24CC24A89520918100922FF6
:101BC000935097FD1FC180917E00A1E9B0E0A81B52
:101BD000B10980917D008D3209F0B8C0983009F0CC
:101BE0000FC183EC809371008AE5809360001092AE
:101BF0006A003C91832F8076FD0191818823E9F072
:101C0000993061F48281823029F410926D008FEF57
:101C100090E011C081E080936E0002C0913019F015
:101C200080E090E008C082E690E09093800080938E
:101C30007F0087E090E0982F74C0FD012281109210
:101C40007A00992321F410927B0022E063C0953042
:101C500019F4209382005DC0963009F04BC0FD015D
:101C60008381813019F48CE498E11AC0823041F408
:101C70008EE598E19093800080937F0092E235C0DA
:101C80008330F1F4222341F486E298E190938000BE
:101C900080937F0094E029C0213041F48AE298E1EA
:101CA0009093800080937F0092E11FC02230E1F486
:101CB0008CE398E19093800080937F0090E115C0C1
:101CC000813241F480E798E19093800080937F0017
:101CD00099E00BC0823241F480E898E19093800053
:101CE00080937F0091E201C090E080E480936A00DD
:101CF000292F16C0983021F421E084E890E00CC030
:101D0000993019F42093840004C09A3011F421E032
:101D100001C020E08AE790E09093800080937F00EC
:101D2000922F9F3F41F437FF02C0FD01968180E86A
:101D300080936A0008C0FD018781882321F4868191
:101D4000891708F4982F909361005AC080916A0017
:101D500087FF56C0192F40916B0050916C00809105
:101D60006D00882331F4FD01418152811496122FB8
:101D70001750082F010F00936D0023E0D22E91E041
:101D8000E92E85E0F82E842F8F7349F4F894FA0138
:101D9000D0925700E895789407B600FCFDCFF894F0
:101DA0009A018D919C9111970C01FA01E0925700D4
:101DB000E89511247894BA016E5F7F4FAB01862FAE
:101DC0008F7349F4F894F901F0925700E8957894EC
:101DD00007B600FCFDCF125011F01296D4CF7093CD
:101DE0006C0060936B000078802F99278F3F21F45F
:101DF0008EE18093600004C0882311F0109261008E
:101E0000109281008091600084FF46C06091610063
:101E10006F3F09F441C090917100693008F05FC0D4
:101E20001092610088E8982790937100662309F466
:101E30005FC020917F003091800080916A0086FF12
:101E40000AC0F901962FA2E7B0E084918D933196F4
:101E50009150D9F708C0F901962FA2E7B0E081911F
:101E60008D939150E1F76150C901860F911D6F5F0D
:101E700001969093800080937F007727162F82E74A
:101E800090E040DD1C5F1C3010F01CE003C08FEFC1
:101E9000809361001093600094E180B3847131F409
:101EA0009150D9F71092820010927C0080916E00C0
:101EB000882321F0BA9411F4CA9411F0839B7CCE4C
:101EC000F89481E180935700E8951BBE15BE81E030
:101ED0008BBF1BBEE0916F00F091700009956850B8
:101EE0006093610088E898279093710068E0A1CF23
:0E1EF00060E082E790E006DD14E0C9CFFFCF8E
:0A1EFE005AFF014000002000000020
:0400000300001800E1
:00000001FF
