:1000000012C02CC02BC02AC029C028C027C026C0BF
:1000100025C024C023C022C021C020C01FC01EC0D4
:100020001DC01CC01BC011241FBECFE5D4E0DEBF25
:10003000CDBF10E0A0E6B0E0EEE0F4E002C0059035
:100040000D92A037B107D9F710E0A0E7B0E001C0EA
:100050001D92A537B107E1F775D1D7C1D1CF80E3A4
:1000600095E70197F1F7089595B3907F95BB25B378
:10007000982F92959F70922B95BB979A979895B3CE
:10008000907F95BB95B38F70982B95BB979A979857
:10009000089595B3907F95BB95B38F70892B85BBE1
:1000A000979A9798089595B3907F95BB25B3982F0D
:1000B00092959F70922B95BB92B3906A92BB979842
:1000C00095B3907F95BB95B38F70982B95BB979AFE
:1000D00082B38F7582BB0895DC01EC91EE2329F188
:1000E00020E040E355E72F5F85B3807F85BB95B364
:1000F0008E2F82958F70892B85BB82B3806A82BBDD
:10010000979885B3807F85BB85B3EF70E82BE5BBFF
:10011000979A82B38F7582BBCA010197F1F7FD01EF
:10012000E20FF11DE081EE23F1F60895E8EBFBE02C
:100130003197F1F795B3907F95BB25B3982F9295A2
:100140009F70922B95BB92B3906A92BB979895B390
:10015000907F95BB95B38F70982B95BB979A82B380
:100160008F7582BB81E0089595B3907F95BB25B3D1
:10017000982F92959F70922B95BB92B3906A92BBE9
:10018000979895B3907F95BB95B38F70982B95BB3F
:10019000979A82B38F7582BB81E090E0089584B313
:1001A0008F6084BB81B3806E81BB82B38F7182BB51
:1001B00020E335E7C9010197F1F7C9010197F1F78C
:1001C000C9010197F1F785B3807F85BB85B3836053
:1001D00085BB979A9798C9010197F1F785B3807FFE
:1001E00085BB85B3836085BB979A9798C9010197B2
:1001F000F1F785B3807F85BB85B3836085BB979A14
:100200009798C9010197F1F785B3807F85BBA99ABB
:10021000979A9798C9010197F1F785B3807F85BBBD
:10022000A99A979A979885B3807F85BBAB9A979A3E
:100230009798C9010197F1F785B3807F85BB85B396
:1002400085BB979A979885B3807F85BBAB9A979A21
:100250009798C9010197F1F785B3807F85BB85B376
:1002600085BB979A979885B3807F85BBA89A979A04
:100270009798C9010197F1F785B3807F85BB85B356
:1002800085BB979A979885B3807F85BB85B3866039
:1002900085BB979A9798C9010197F1F785B3807F3D
:1002A00085BB85B385BB979A979885B3807F85BBBF
:1002B00085B38C6085BB979A9798C9010197F1F730
:1002C0000895E8EBFBE03197F1F76130A9F1613077
:1002D000B8F4282F205885B3807F85BB95B3822F33
:1002E00082958F70892B85BB979A979885B3807F6D
:1002F00085BB85B32F70282B25BB979A97980895B7
:100300006230E9F0633009F00895282F2C5285B34C
:10031000807F85BB95B3822F82958F70892B85BB9B
:10032000979A979885B3807F85BB85B32F70282BCC
:1003300025BB979A97980895282F2054CCCF282F23
:100340002C56C9CF2CDF09D081E08EDE88DE80E616
:1003500090E0C2DE05D004D0FDCFBA9AC2980895CD
:10036000209173003091740021153105B1F4809112
:1003700071009091720001969093720080937100C9
:100380006AE070E01BD0892B41F4809170008823D3
:1003900059F481E080937000C29A2F5F3F4F3093F1
:1003A000740020937300089510927000C2982F5F1C
:1003B0003F4F3093740020937300089597FB092EEC
:1003C00007260AD077FD04D00CD006D000201AF4FE
:1003D000709561957F4F0895F6F7909581959F4FA1
:1003E0000895AA1BBB1B51E107C0AA1FBB1FA6177C
:1003F000B70710F0A61BB70B881F991F5A95A9F7CE
:0E04000080959095BC01CD010895F894FFCF32
:10040E0048656C6C6F20576F726C6421203200004F
:00000001FF
