:1000000012C019C018C017C016C015C014C013C044
:1000100012C011C010C00FC00EC00DC00CC00BC06C
:100020000AC009C008C011241FBECFE5D4E0DEBF5E
:10003000CDBF02D047C0E4CFBA9AC29800E010E02A
:10004000E0E0F0E020E030E0CAE0D0E005C0C29897
:1000500000E010E02F5F3F4F21153105D9F73196B1
:10006000CF01BE0108D0892BA9F7012B81F7C29AD5
:1000700001E010E0EFCF97FB072E16F4009406D0B6
:1000800077FD08D00BD007FC05D03EF49095819504
:100090009F4F0895709561957F4F0895AA1BBB1BD4
:1000A00051E107C0AA1FBB1FA617B70710F0A61B78
:1000B000B70B881F991F5A95A9F780959095BC0199
:0800C000CD010895F894FFCF73
:00000001FF
