:100000002DC047C046C045C044C043C042C041C0E7
:1000100040C03FC03EC077C03CC03CC03AC039C0C1
:1000200038C037C036C050726573732061206B656D
:100030007920746F207465737420726563697665C6
:10004000206C6F6F70206261636B2E0D0A002000C0
:10005000756172745F7465737420200011241FBE73
:10006000CFE5D4E0DEBFCDBF10E0A0E6B0E0E0E831
:10007000F4E002C005900D92A637B107D9F710E061
:10008000A6E7B0E001C01D92AC37B107E1F772D12D
:10009000F5C1B6CF1F920F920FB60F9211248F9316
:1000A000EF93FF93E0917900F0917A00309701F19E
:1000B0003196F0937A00E0937900E491EE2349F0D1
:1000C000ECB9FF91EF918F910F900FBE0F901F90A1
:1000D000189510927A001092790081E08093780050
:1000E000FF91EF918F910F900FBE0F901F90189579
:1000F00081E080937800FF91EF918F910F900FBE78
:100100000F901F9018951F920F920FB60F92112407
:100110008F939F9391E0909377008CB180937B00B5
:1001200080917600882351F490937600C29A9F9133
:100130008F910F900FBE0F901F9018951092760020
:10014000C2989F918F910F900FBE0F901F9018959E
:100150005D9BFECF8CB90895809177008823E1F3F1
:100160001092770080917B000895FC018491319674
:10017000F0937A00E0937900882359F05D9BFECFDD
:100180008CB9849131968823C9F7F0937A00E09373
:10019000790008955D9BFECF8DE08CB95D9BFECF0D
:1001A0008AE08CB908958F708A3028F0895C5D9B55
:1001B000FECF8CB90895805DFACF81E080937800FE
:1001C0001092770010927A001092790088E98AB92B
:1001D0008DE489B910BC78940895809177000895D2
:1001E000FC018081882351F09DE08A3041F03196F6
:1001F0005D9BFECF8CB980818823B9F708955D9B04
:10020000FECF9CB9F4CF982F92959F709A3070F0E2
:10021000995C5D9BFECF9CB98F708A3028F0895C19
:100220005D9BFECF8CB90895805DFACF905DF1CFD4
:10023000FC018081882351F09DE08A3081F0319665
:100240005D9BFECF8CB980818823B9F75D9BFECF83
:100250008DE08CB95D9BFECF8AE08CB908955D9BE3
:10026000FECF9CB9ECCF292F22952F702A3010F1A8
:10027000295C5D9BFECF2CB99F709A30C8F0995CC9
:100280005D9BFECF9CB9982F92959F709A3070F02D
:10029000995C5D9BFECF9CB98F708A3028F0895C99
:1002A0005D9BFECF8CB90895805DFACF905DF1CF54
:1002B000905DE6CF205DDDCFAB01BC01CB01AA276D
:1002C000BB27382F892F292F22952F702A3008F429
:1002D0004FC0295C5D9BFECF2CB98F708A3008F42B
:1002E00045C0895C5D9BFECF8CB9932F92959F7022
:1002F0009A30D0F1995C5D9BFECF9CB9832F8F70B3
:100300008A3080F1895C5D9BFECF8CB9942F652F7C
:10031000252F22952F702A3018F1295C5D9BFECF86
:100320002CB96F706A30D0F0695C5D9BFECF6CB900
:10033000892F82958F708A3078F0895C5D9BFECF23
:100340008CB9892F8F708A3028F0895C5D9BFECF35
:100350008CB90895805DFACF805DF0CF605DE5CF08
:10036000205DDCCF805DCFCF905DC5CF805DBACF03
:10037000205DB0CFA0E0B0E0EFEBF1E05AC0BA9A58
:10038000C2981BDF81E48CB905DF80E590E0EDDEEB
:1003900080E690E025DF8EE490E0E7DE8CE690E0FA
:1003A00047DFF8DE86E290E0E0DEC0E0D0E000E08B
:1003B00010E0FF249AE5D92E81E4E82E0EDF882391
:1003C00091F4209761F40F5F1F4FC8016AE070E05D
:1003D00012D0892B21F4FF2049F0ECB8FF2421969C
:1003E000FCDE882371F3B8DE8CB9EBCFDCB8FF24D8
:1003F000F3942196F5CF97FB092E07260AD077FDB7
:1004000004D028D006D000201AF4709561957F4F53
:100410000895F6F7909581959F4F08952F923F92FA
:100420004F925F926F927F928F929F92AF92BF9204
:10043000CF92DF92EF92FF920F931F93CF93DF93B0
:10044000CDB7DEB7CA1BDB0B0FB6F894DEBF0FBE0D
:10045000CDBF0994AA1BBB1B51E107C0AA1FBB1F3C
:10046000A617B70710F0A61BB70B881F991F5A9540
:10047000A9F780959095BC01CD010895F894FFCF20
:100480004A756E20313620323031330031393A31FD
:06049000373A343700008A
:00000001FF
